:020000040800F2
:10000000C0050020050100080D0100080F010008CF
:10001000110100081301000815010008000000008C
:1000200000000000000000000000000017010008B0
:1000300019010008000000001B0100081D01000854
:100040001F0100081F0100081F0100081F01000810
:100050001F0100081F0100081F0100081F01000800
:100060001F0100081F0100081F0100081F010008F0
:100070001F0100081F0100081F0100081F010008E0
:100080001F0100081F0100081F0100081F010008D0
:100090001F0100081F0100081F0100081F010008C0
:1000A0001F0100081F0100081F0100081F010008B0
:1000B0001F0100081F0100081F0100081F010008A0
:1000C0001F0100081F0100081F0100081F01000890
:1000D0001F010008391100081F0100081F01000856
:1000E0001F0100081F0100081F010008DFF810D0E1
:1000F00000F01AF80048004789130008AFF30080A9
:10010000C00500200648804706480047FEE7FEE796
:10011000FEE7FEE7FEE7FEE7FEE7FEE7FEE7FEE7B7
:10012000E1060008ED000008064C074D06E0E06817
:1001300040F0010394E8070098471034AC42F6D32E
:10014000FFF7D8FF7C1400089C14000804490A68D3
:1001500022F008020A600A6802430A607047000041
:100160000020024004490A6822F010020A600A686E
:1001700002430A607047000000200240034A1168F1
:1001800001F0380101431160704700000020024077
:10019000F8B501211D2000F0F3F80121134800F00B
:1001A0007DF84FF45474ADF8004010208DF8030032
:1001B00001258DF802500E4E6946304600F01AF8BF
:1001C0002146304600F098F82021ADF80010482173
:1001D0008DF803108DF802506946304600F00AF899
:1001E0002021304600F088F8F8BD00000002300001
:1001F000000801402DE9F0410022CC7804F00F0303
:10020000E40601D58C7823430C784FF00F0714F0E7
:10021000FF0F4FF0010C1CD005680CFA02F40E8899
:100220002640A64211D1960007FA06F825EA0805ED
:1002300003FA06F848EA0505CE78282E02D0482EA3
:1002400002D002E0446100E00461521C082AE4D3B9
:1002500005600A88FF2A1ED94568002202F10806B7
:100260000CFA06F40E882640A64210D1960007FA32
:1002700006F825EA080503FA06F848EA0505CE78E7
:10028000282E00D14461CE78482E00D10461521C42
:10029000082AE3D34560BDE8F0810000F0B5154CB5
:1002A000002801DAE36900E06368C0F30346420D09
:1002B000120185B2C0F301579540032F07D0C20247
:1002C0000CD50322B240934343F0706209E023F05F
:1002D0007062636823F07063636002E0AB4343F0D5
:1002E000706201B12A43002801DAE261F0BD626068
:1002F000F0BD00000000014041617047016170479E
:1003000070B50F23C27801260178002A1ED0144A46
:10031000126802F4E062C2F5E062120AC2F104045B
:10032000D3404578A54082781A402A43120101F152
:10033000E02181F80024007800F01F018E40400980
:10034000800000F1E020C0F8006170BD01F01F00E6
:1003500086404809800000F1E020C0F8806170BD4F
:100360000CED00E0054A002903D0D1690143D161B9
:100370007047D1698143D16170470000001002408D
:10038000054A002903D09169014391617047916941
:1003900081439161704700000010024010B500F0E9
:1003A00029F84FF48034204600F0BCF800F018F92A
:1003B0000220FFF7E3FE0020FFF7C8FE1020FFF742
:1003C000D1FE4FF4E011204600F0F6F8012000F0D5
:1003D000EDF8022000F0FAF8002000F099F8A011E2
:1003E00000F0D0F8002000F0D7F8BDE81040002061
:1003F00000F0B4B80C48016841F0010101604168A7
:100400000A4A114041600168094A114001600168CF
:1004100021F480210160416821F4FE0141604FF424
:100420001F01816070470000001002400000FFF8CB
:10043000FFFFF6FE10B5264A516801F00C01254B6E
:10044000002927D0042927D0082927D00360516824
:1004500001F0F0010909204B5C5C0168E14041605A
:10046000546804F4E064240A1C5D21FA04F48460F6
:10047000546804F46054E40A1B5DD940C1605268BA
:1004800002F44042920B144B1B1F9A5CB1FBF2F139
:10049000016110BD0360DAE70360D8E7516801F439
:1004A0007011536803F48033022404EB914133B19B
:1004B00053689B0307D5094B59430160C7E7074BB6
:1004C00059430160C3E7034B59430160BFE7000094
:1004D0000010024000127A001800002000093D00C0
:1004E000034600205909094A01290AD002290AD0E5
:1004F000516A03F01F02012393400B4200D00120F8
:1005000070471168F5E7116AF3E700000010024038
:10051000034A516821F0F001014351607047000027
:10052000001002400C490A6822F480320A600A680E
:1005300022F480220A60B0F5803F07D0B0F5802F0A
:1005400003D1086840F4A02008607047086840F4B0
:100550008030086070470000001002400849002207
:100560000A7001F82029012805D0042802D10520AD
:1005700081F820007047012081F8200070470000BA
:1005800020100240034A516821F4E06101435160A8
:100590007047000000100240034A516821F4605186
:1005A00041EAC000506070470010024001490866EF
:1005B0007047000000004242034B5A6822F47C124C
:1005C000084310435860704700100240034A5168C6
:1005D00021F0030101435160704700000010024008
:1005E00018B5002000904FF4A0643120FFF778FF89
:1005F0000099491C00910099A14201D00028F4D033
:100600003120FFF76DFF08B1012018BD002018BD93
:10061000AFF300800CB500220192009227480168D8
:1006200041F4803101604FF4A063016801F40031AE
:1006300000910199491C0191009911B901999942C0
:10064000F3D10168890302D50121009100E00092F5
:100650000099012930D11A490A6842F010020A6053
:100660000A6822F003020A600A6842F002020A6085
:100670004168416041684160416841F48061416086
:10068000416821F47C114160416841F4E811416006
:10069000016841F08071016001688901FCD5416801
:1006A00021F003014160416841F00201416041686D
:1006B000C1F381010229FAD10CBD000000100240F3
:1006C000002002404FF0E021042804D0086920F007
:1006D000040008617047086940F004000861704731
:1006E00010B50F48016841F00101016041680D4AF1
:1006F0001140416001680C4A11400160016821F419
:1007000080210160416821F4FE0141604FF41F0126
:100710008160FFF77DFF05494FF00060086010BD64
:10072000001002400000FFF8FFFFF6FE08ED00E0B9
:1007300008B50120009001226946002000F02BFA44
:100740000320009001226946002000F024FA08BD31
:1007500008B5002100910222694600F0F9F99DF8E0
:1007600000009DF8011040EA012008BD38B504469C
:100770000120009001226946132000F0E9F99DF85C
:100780000000C00711D01420FFF7E2FF20801620E0
:10079000FFF7DEFF60801820FFF7DAFFA0801A2045
:1007A000FFF7D6FFE080012038BD002038BD0000F3
:1007B00070B5124D4FF4806421462846FFF79CFD2A
:1007C0002A1D106820F470431360106840F44050F4
:1007D0001060D1142846FFF78FFD142000F0D0FDE3
:1007E00021462846FFF78AFD142000F0C9FD214666
:1007F0002846BDE87040FFF77FBD0000000C0140B7
:1008000038B54FF44064ADF8004010208DF8030077
:1008100003208DF80200054D69462846FFF7EAFCE3
:1008200021462846FFF76AFD38BD0000000C014054
:1008300070B5124D4FF4806421462846FFF75CFDE9
:100840002A1D106820F470431360106840F4405073
:100850001060D1142846FFF751FD142000F090FDE0
:1008600021462846FFF74AFD142000F089FD214665
:100870002846BDE87040FFF73FBD0000000C014076
:100880002DE9F04107460D4616469846002400F033
:1008900099F8012000EB4700C0B200F057F800F0D3
:1008A000E1F8771E0CE0BC4204D1002000F014F8FF
:1008B000285503E0012000F00FF82855641CE4B22D
:1008C000B442F0D3B8F1010F03D1BDE8F04100F01C
:1008D000A1B8BDE8F08100002DE9F0478146002471
:1008E0001948016821F470410160016841F4004138
:1008F000016000250615071F00F10408314638463F
:10090000FFF7FAFC142000F03BFD31463846FFF7B4
:10091000F5FC6006040ED8F80000000501D5641C43
:10092000E4B20A2000F02CFD6D1CEDB2082DE5D3D9
:10093000B9F1000F04D0FFF73BFF2046BDE8F08778
:10094000FFF776FFF9E70000040C01402DE9F041C4
:1009500005461B48016821F470410160016841F4BB
:10096000405101600615071F31463846FFF7C4FCA9
:1009700000244FF40068280604D541463846FFF7A6
:10098000BDFC03E041463846FFF7B6FC6806050E9D
:10099000142000F0F5FC31463846FFF7AFFC142078
:1009A00000F0EEFC31463846FFF7A6FC142000F0BC
:1009B000E7FC641CE4B2082CDDD3BDE8F081000044
:1009C000040C014070B51248016821F470410160C7
:1009D000016841F440510160C414051F21462846B6
:1009E000FFF78CFC661031462846FFF787FC28206D
:1009F00000F0C6FC21462846FFF77EFC282000F0C8
:100A0000BFFC31462846BDE87040FFF775BC0000CA
:100A1000040C014070B51248016821F47041016076
:100A2000016841F4405101600415051F2146284624
:100A3000FFF762FC660031462846FFF75DFC282080
:100A400000F09EFC21462846FFF758FC3146284618
:100A5000FFF754FCBDE87040282000F091BC000076
:100A6000040C014070B500241548016821F4704160
:100A70000160016841F400410160C114051F28466E
:100A8000FFF73CFC0A2000F07BFC2E15314628467F
:100A9000FFF734FC0A2000F073FC094A121D06E03F
:100AA000641CFA2C03D9FFF7B5FF012070BD136851
:100AB0001805F5D431462846FFF71EFC002070BD0E
:100AC000040C01402DE9F04180460D4616461F46B4
:100AD0000024FFF777FF4FEA4860000EFFF736FF6C
:100AE000FFF7C0FF06E0285DFFF730FFFFF7BAFF12
:100AF000641CE4B2B442F6D3012F03D1BDE8F04147
:100B0000FFF788BFBDE8F08108B500200090FFF72F
:100B100077FE01226946122000F01AF89DF80000C5
:100B20004D2803D0002144280ED000E001210020F0
:100B300001430BD0EB2000F027F8002000F01DF857
:100B4000FFF7F6FD012008BD0120F1E7002008BDF8
:100B500037B50C4615469DF8000040F08000009027
:100B60000023012269462920FFF7ACFF01232A4612
:100B700021462920FFF784FE3EBD01B501226946CA
:100B80000F2000F008F808BD01B5012269461046A3
:100B900000F001F808BD3EB50023009301930293D5
:100BA00040F080008DF8000001206B4605E00C1835
:100BB00014F8014C1C54401CC0B29042F7D9521C8E
:100BC000D2B2012369462920FFF77CFF3EBD000019
:100BD000F0B589B0054601210846FFF7C3FB0121A6
:100BE0000420FFF7CDFB0126ADF8206018208DF81A
:100BF000230003208DF8220008A91848FFF7FAFA0D
:100C000040F2CF70ADF8180040F2CF20ADF81400DC
:100C10000024ADF81A40ADF81640B70705A93846CC
:100C200000F03CFA6021ADF80410ADF80660ADF8B4
:100C30000C40ADF80A5001A9384600F007F9082128
:100C4000384600F047F90121384600F0F3F8012159
:100C5000384600F0E3F809B0F0BD0000000801409C
:100C600070B588B0054601210846FFF77BFB0121DE
:100C70000420FFF785FB0221ADF81C1018208DF829
:100C80001F0003208DF81E0007A91948FFF7B2FACC
:100C900040F2CF70ADF8140040F2CF20ADF8100054
:100CA0000024ADF81640ADF812404FF0804604A97C
:100CB000304600F0F3F96021ADF800100121ADF8E5
:100CC0000210ADF80840ADF806506946304600F015
:100CD00007F90821304600F047F90121304600F0BD
:100CE000A9F80121304600F099F808B070BD000065
:100CF0000008014070B588B0054601210846FFF79D
:100D000031FB01210420FFF73BFB0421ADF81C104F
:100D100018208DF81F0003208DF81E0007A9194820
:100D2000FFF768FA40F2CF70ADF8140040F2CF2020
:100D3000ADF810000024ADF81640ADF812404FF0A9
:100D4000804604A9304600F0A9F96021ADF80010F2
:100D50000121ADF80210ADF80840ADF80650694623
:100D6000304600F00BF90821304600F049F9012126
:100D7000304600F05FF80121304600F04FF808B02F
:100D800070BD00000008014070B588B00546012123
:100D90000846FFF7E7FA01210420FFF7F1FA0821DE
:100DA000ADF81C1018208DF81F0003208DF81E00D0
:100DB00007A91948FFF71EFA40F2CF70ADF81400EA
:100DC00040F2CF20ADF810000024ADF81640ADF889
:100DD00012404FF0804604A9304600F05FF96021D0
:100DE000ADF800100121ADF80210ADF80840ADF8E3
:100DF00006506946304600F009F90821304600F0F7
:100E000039F90121304600F015F80121304600F093
:100E100005F808B070BD000000080140002904D0AA
:100E2000018841F0800101807047018821F0800134
:100E300001807047002904D0018841F00101018040
:100E40007047018821F001010180704730B5028CA4
:100E500022F001020284028C8388048B24F0700447
:100E600024F003050C882C4322F002020D8915435F
:100E70004A882A43124DA8420BD0124DA84208D0EE
:100E8000114DA84205D0114DA84202D0104DA842E4
:100E90000FD122F008054A892A4322F004058A88E6
:100EA0002A4323F4807323F400738D891D43CB8977
:100EB0002B4383800483C9888186028430BD00006F
:100EC000002C01400034014000400140004401403A
:100ED00000480140028B22F008020A430283704757
:100EE00070B5028C22F010020284028C8388048B7D
:100EF00024F4E04424F440760D884FF6FF7404EAAD
:100F00000525354322F020020E8904EA0616164311
:100F10004A8804EA02123243114EB04202D0114E06
:100F2000B04217D122F080024E8904EA0616164319
:100F300026F040068A8804EA0212324323F48063D2
:100F400023F400638E8904EA86061E43CB8904EAF3
:100F50008303334383800583C9880187028470BD7E
:100F6000002C014000340140028B22F400624FF655
:100F7000FF7303EA012111430183704770B5028CAE
:100F800022F480720284028C8388848B24F07004A3
:100F900024F003040D88254322F400720E894FF6D5
:100FA000FF7404EA062616434A8804EA0222324302
:100FB000114EB04202D0114EB04217D122F4006659
:100FC0004A8904EA0222324322F480668A8804EACB
:100FD0000222324323F4805323F400538E8904EA1F
:100FE00006161E43CB8904EA0313334383808583AB
:100FF000C9888187028470BD002C01400034014003
:10100000828B22F008020A438283704770B5028CFB
:1010100022F480520284058C8288838B23F4E0437F
:1010200023F440760C884FF6FF7303EA042434431C
:1010300025F400550E8903EA06362E434D8803EA4F
:1010400005353543094EB04202D0094EB04205D1B4
:1010500022F480468A8903EA8212324382808483A2
:10106000C988A0F84010058470BD0000002C014024
:1010700000340140828B22F400624FF6FF7303EAD2
:101080000121114381837047818670470187704732
:1010900081877047A0F840107047000030B5028883
:1010A0001B4C1C4DA0420DD0A8420BD0B0F1804F7C
:1010B00008D0194B984205D0184B984202D0184BD3
:1010C000984203D122F070034A881A43154B984284
:1010D00006D0154B984203D022F44073CA881A43B5
:1010E00002808A8882850A880285A0420AD0A842A6
:1010F00008D00E4A904205D00D4A904202D00D4AC7
:10110000904201D1097A01860121818230BD00001F
:10111000002C014000340140000400400008004061
:10112000000C00400010004000140040004001404E
:10113000004401400048014070B5164C40F2255172
:10114000204600F039F800280ED0204600F0CEF8F6
:10115000C1B2114A1088030406D444044FF00003BE
:1011600007D50A2901D0138070BD40F400401080DB
:1011700070BD0D290AD0094DC0F30D042955401C3E
:1011800080B21080C728F3D9138070BD40F480402E
:10119000108070BD0038014028000020F8000020B9
:1011A000002904D0818941F40051818170478189EF
:1011B00021F400518181704770B5002440F66A1215
:1011C000C1F3421301F01F05012606FA05F2012BB7
:1011D0000CD0022B0DD0838A1340090A8E40008860
:1011E00030400BB100B10124204670BD838913400B
:1011F000F3E7038A1340F0E710B540F66A13C1F332
:10120000421301F01F040121A140012B07D0022B42
:1012100007D014303AB102680A43026010BD0C30A6
:10122000F8E71030F6E702688A43026010BD00005C
:1012300030B585B004460D46208A4CF6FF71084053
:10124000E98801432182A0894EF6F3110840A9885C
:101250002A8911436A8902431143A181A08A4FF66A
:10126000FF410840A9890143A1826846FFF7E2F8DF
:101270001D48844201D1039800E00298A189090425
:1012800008D500EBC00101EB001029684900B0FB54
:10129000F1F007E000EBC00101EB001029688900C4
:1012A000B0FBF1F06422B0FBF2F109010B096FF021
:1012B00018056B4300EB8300A3891D044FF0320334
:1012C00007D503EBC000B0FBF2F000F007000843C5
:1012D00006E003EB0010B0FBF2F000F00F00084353
:1012E000208105B030BD0000003801408088C0F387
:1012F0000800704702E008C8121F08C1002AFAD18E
:1013000070477047002001E001C1121F002AFBD185
:1013100070472DE9F0410C4616461D4681B24FF04C
:1013200080473846FFF7B0FEA1B23846FFF7AEFE61
:10133000B1B23846FFF7ACFEA9B23846BDE8F0417D
:10134000FFF7A8BE10B56FF00400FFF7BBF909481E
:1013500009490068B0FBF1F00849C0B2087000EB21
:101360004002C2EBC0104FF6FF7202EAC000488094
:1013700010BD00000000002000127A00F4000020E0
:10138000401E411CFCD17047FFF708F8FEF700FF34
:101390004FF4E13000F022F8FFF7D4FF0D48FFF7DB
:1013A000EFFFFFF7B1FB0020FFF712FC0020FFF773
:1013B00057FC0020FFF79EFC0020FFF7E5FCFF2311
:1013C000B92278217A20FFF7A4FF0348FFF7CEF96E
:1013D000FBE70000FFFF1F002C00002070B586B067
:1013E0000546012144F20400FEF7CAFF4FF40070E5
:1013F000ADF8140003248DF8164018218DF817104D
:101400001C4E05A93046FEF7F5FE3115ADF8141057
:1014100004218DF8171005A93046FEF7EBFE2520B4
:101420008DF800008DF801408DF8024001208DF804
:1014300003006846FEF764FF01950020ADF8080040
:10144000ADF80A00ADF80C00ADF810000C20ADF8B6
:101450000E00094C01A92046FFF7EAFE012240F2E6
:1014600025512046FFF7C8FE01212046FFF798FED0
:1014700006B070BD00080140003801409C1400080F
:1014800000000020F8000000F41200089415000885
:10149000F8000020C80400000413000800A24A0459
:1014A0000000000000000000010203040607080914
:1014B0000204060800000000010203040102030404
:1014C00006070809000000000000000000000000FE
:1014D0000000524300002A430000C8420000484375
:1014E0000000234300002A430000C8420000484394
:1014F00000007F4300002A430000C8420000484328
:10150000000057430000C24200000243000048436D
:1015100000007F4300009A420000484300006B43F4
:101520000000284300009A420000484300006B433B
:1015300000007F430000C24200003B4300007343B1
:10154000000057430000F0420000DC420000484326
:10155000000028430000C24200003B4300007343E8
:1015600000005743000005430000C84200005243FA
:1015700000007F430000DC4200002A43000070436B
:10158000000028430000DC4200002A4300007043B2
:041590000A000A0043
:04000005080000ED02
:00000001FF
